:020000040800F2
:1000000000000220CD1B0008D9190008DD190008E6
:10001000E1190008E5190008E919000800000000CE
:10002000000000000000000000000000ED190008C2
:10003000F119000800000000F5190008F91900087E
:100040001D1C00081D1C00081D1C00081D1C0008AC
:100050001D1C00081D1C00081D1C00081D1C00089C
:100060001D1C00081D1C00081D1C00081D1C00088C
:100070001D1C00081D1C00081D1C00081D1C00087C
:100080001D1C00081D1C00081D1C00081D1C00086C
:100090001D1C00081D1C00081D1C00081D1C00085C
:1000A0001D1C00081D1C00081D1C00081D1C00084C
:1000B0001D1C00081D1C00081D1C00081D1C00083C
:1000C0001D1C00081D1C00081D1C00081D1C00082C
:1000D0001D1C00081D1C00081D1C00081D1C00081C
:1000E0001D1C00081D1C00081D1C00081D1C00080C
:1000F0001D1C00081D1C00081D1C00081D1C0008FC
:100100001D1C00081D1C00081D1C00081D1C0008EB
:100110001D1C00081D1C00081D1C00081D1C0008DB
:100120001D1C00081D1C00081D1C00081D1C0008CB
:100130001D1C00081D1C00081D1C00081D1C0008BB
:100140001D1C00081D1C00081D1C00081D1C0008AB
:100150001D1C00081D1C00081D1C00081D1C00089B
:100160001D1C00081D1C00081D1C00081D1C00088B
:100170001D1C00081D1C00081D1C000800000000BC
:080180001D1C00081D1C0008F5
:1001900010B5054C237833B9044B13B10448AFF3C1
:1001A00000800123237010BD7000002000000000BB
:1001B000802F000808B5034B1BB103490348AFF378
:1001C000008008BD0000000074000020802F00089F
:1001D00053B94AB9002908BF00281CBF4FF0FF31AE
:1001E0004FF0FF3000F072B9ADF1080C6DE904CEAC
:1001F00000F006F8DDF804E0DDE9022304B0704702
:100200002DE9F047089E04468846002B4BD18A42D0
:10021000154667D9B2FA82F24AB1C2F1200701FA53
:1002200002F320FA07F7954047EA030894404FEAA3
:10023000154E230CB8FBFEF71FFA85FC0EFB178842
:1002400043EA084307FB0CF1994209D9EB1807F17F
:10025000FF3080F01B81994240F21881023F2B440D
:100260005B1AA4B2B3FBFEF00EFB103344EA034466
:1002700000FB0CFCA44509D92C1900F1FF3380F0D8
:100280000781A44540F2048102382C4440EA07402B
:10029000A4EB0C0400271EB1D4400023C6E90043A0
:1002A0003946BDE8F0878B4209D9002E00F0EB807B
:1002B0000027C6E9000138463946BDE8F087B3FAA1
:1002C00083F7002F47D18B4202D3824200F2FA809B
:1002D000841A61EB030301209846002EE0D0C6E9A2
:1002E0000048DDE702B9FFDEB2FA82F2002A40F0F0
:1002F0008F80491B4FEA154E1FFA85F80127B1FB85
:10030000FEFC230C0EFB1C1143EA014308FB0CF11D
:10031000994207D9EB180CF1FF3002D2994200F252
:10032000CD808446591AA3B2B1FBFEF00EFB101427
:1003300043EA044408FB00F8A04507D92C1900F152
:10034000FF3302D2A04500F2B6801846A4EB0804A1
:1003500040EA0C409FE7C7F1200CBB4022FA0CFE9C
:100360004EEA030E01FA07F420FA0CF521FA0CF319
:100370004FEA1E482543B3FBF8F92C0C08FB193350
:100380001FFA8EFA44EA034309FB0AF49C4202FA7C
:1003900007F200FA07F10BD91EEB030309F1FF3056
:1003A00080F087809C4240F28480A9F10209734466
:1003B0001B1BADB2B3FBF8F008FB103345EA034456
:1003C00000FB0AFAA24508D91EEB040400F1FF3332
:1003D0006BD2A24569D90238744440EA0940A0FBB7
:1003E0000289A4EB0A044C45C2464B4654D351D073
:1003F000002E69D0B1EB0A0564EB030404FA0CFC8F
:10040000FD40FC404CEA0505C6E90054002747E7DB
:10041000C2F1200320FA03F7954001FA02F021FA15
:1004200003F34FEA154E3843010CB3FBFEF71FFAF6
:1004300085F80EFB173341EA034107FB08F38B42B3
:1004400004FA02F407D9691807F1FF3C2FD28B4256
:100450002DD9023F2944CB1A81B2B3FBFEF00EFB2B
:10046000103341EA034100FB08F38B4207D96918B6
:1004700000F1FF3C17D28B4215D902382944C91A22
:1004800040EA07473BE73746304609E70746E7E6D5
:100490001846FBE64145ABD2B8EB020A69EB0E0207
:1004A00001381346A4E76046E9E7184695E7674632
:1004B000D1E781467CE702382C4447E7ACF1020CD7
:1004C0002B442FE7384608E73746E9E6704700BF78
:1004D00001F0FF01102A2BDB10F0070F08D010F8F5
:1004E000013B013A8B422DD010F0070F42B3F6D1F9
:1004F000F0B441EA012141EA014122F007047FF012
:1005000000070023F0E80256083C85EA010586EA68
:10051000010685FA47F5A3FA87F586FA47F6A5FAA4
:1005200087F68EB9EED1F0BC01F0FF0102F00702B0
:1005300032B110F8013B013A83EA010313B1F8D15B
:100540000020704701387047002D06BF354603383C
:10055000073815F0010F07D1013015F4807F02BF75
:10056000013015F4C03F0130F0BC0138704700BFC6
:1005700070B50E4B0E4D1B682A7806464FF47A7004
:10058000B0FBF2F0B3FBF0F000F088F808B90F2EE2
:1005900001D9012070BD0446024631464FF0FF30BC
:1005A00000F046F86E60204670BD00BF08000020D5
:1005B0000000002008B50B4B1A6842F400721A6064
:1005C0001A6842F480621A601A6842F480721A60F3
:1005D000032000F01BF80020FFF7CAFF01F0DEF94E
:1005E000002008BD003C0240034A044B11681B7800
:1005F0000B441360704700BF9C00002000000020E7
:10060000014B1868704700BF9C000020074AD36860
:100610004FF6FF010B40000243F0BF6300F4E060BF
:1006200043F400330343D360704700BF00ED00E0A4
:10063000184BDB68C3F3022330B4C3F10705042D64
:1006400003F1040428BF0425062C19D9033B4FF0FD
:10065000FF349C4022EA04044FF0FF32AA4021EA12
:10066000020101FA03F2224312010028D2B20ADB8E
:1006700000F1604000F5614080F8002330BC704715
:1006800000242346E8E7044B00F00F0003441A76E9
:1006900030BC704700ED00E0FCEC00E00138B0F148
:1006A000807F0ED2084B10B4084C5860F02084F8BC
:1006B00023000022072110469A6019605DF8044B60
:1006C00070470120704700BF10E000E000ED00E03F
:1006D0002DE9F04FDFF830C2DFF83082D1F800E0CA
:1006E00083B0002503E00135102D00F09A8001232E
:1006F000AB400EEA0304A342F5D14E6826F0100A7F
:10070000BAF1020F00F090804FEA45090322D0F8B9
:1007100000B002FA09F2D24306F0030702EA0B0B1B
:1007200007FA09F70AF1FF3A47EA0B07BAF1010F96
:10073000076040F29F80C7688B683A4003FA09F36C
:100740001343C360F300CED500230193D8F844309F
:1007500043F48043C8F84430D8F8443025F003020D
:1007600002F1804203F4804302F59C32019305F0CC
:100770000307019BD2F80890BF000F23BB4029EA72
:10078000030A5B4B984224D003F58063984200F043
:100790008480584B984200F08780574B984200F075
:1007A0008A80564B984200F08D80554B984200F05D
:1007B0009080544B984200F09380DFF85491484564
:1007C0000CBF4FF007094FF0080909FA07F74AEA8A
:1007D000070AC2F808A0DCF80030E243F70354BF70
:1007E00013402343CCF80030DCF80430B70354BF87
:1007F00013402343CCF80430DCF80830F70254BF30
:1008000013402343CCF80830DCF80C30B60205F175
:10081000010554BF13402343102DCCF80C307FF456
:1008200066AF03B0BDE8F08F4FEAD50900EB890948
:1008300005F00707D9F82020BF004FF00F0B0BFA87
:1008400007FB22EA0B0A0A69BA4042EA0A02C9F81F
:1008500020204FEA45090322D0F800A002FA09F24D
:10086000D24306F0030702EA0A0A07FA09F747EA41
:100870000A070760876807EA020ACF6807FA09F7DC
:1008800047EA0A078760D0F804A0C6F300172AEAEF
:100890000303AF401F4347604DE74FF0010909FADA
:1008A00007F74AEA070A94E74FF0020909FA07F73F
:1008B0004AEA070A8DE74FF0030909FA07F74AEAFF
:1008C000070A86E74FF0040909FA07F74AEA070A18
:1008D0007FE74FF0050909FA07F74AEA070A78E7C0
:1008E0004FF0060909FA07F74AEA070A71E700BF5D
:1008F0000000024000080240000C024000100240CC
:100900000014024000180240003C01400038024040
:10091000001C024002B9090481617047002800F000
:1009200032812DE9F0410368DD0782B004462FD5FE
:10093000AC498A6802F00C02042A00F0EA808A6856
:1009400002F00C02082A00F0E0806368B3F5803FF3
:1009500000F0E980B3F5A02F00F05481A14D2A6882
:1009600022F480322A602A6822F480222A60002B36
:1009700040F0DE80FFF744FE064605E0FFF740FE4C
:10098000801B642800F2F2802B689B03F6D4236856
:100990009F0775D41A0715D56369002B00F0A58051
:1009A000914B904D01221A60FFF72AFE064605E0A2
:1009B000FFF726FE801B022800F2D8806B6F9B0792
:1009C000F6D5236858073BD5864A136C13F080533D
:1009D00040F0DB800193136C43F080531364136C7D
:1009E00003F080530193019B0126804D2A68D105B5
:1009F00040F1AC80A368012B00F0C980052B00F00A
:100A00000B81784D2A6F22F001022A672A6F22F0AB
:100A100004022A67002B40F0BF80FFF7F1FD41F28E
:100A20008837804606E0FFF7EBFDA0EB0800B842F0
:100A300000F29C802B6F9807F5D4002E40F0DC80EC
:100A4000A269CAB1674DA96801F00C01082948D014
:100A5000022A674A4FF00001116000F0E780FFF7BB
:100A6000CFFD2C46054604E0FFF7CAFD401B0228D7
:100A70007CD823689B01F7D4002002B0BDE8F08148
:100A8000584A916811F00C0F24D0916801F00C01C4
:100A900008291CD0E368002B00F09280554B514D83
:100AA00001221A60FFF7ACFD064604E0FFF7A8FD3F
:100AB000801B02285AD82B689807F7D52B68226923
:100AC00023F0F80343EAC2032B60236862E752680D
:100AD0005602DFD4434A126895074BD5E268012AD3
:100AE00048D0012002B0BDE8F0813F4A3D4D13607F
:100AF000FFF786FD064604E0FFF782FD801B022813
:100B000034D86B6F9F07F7D45BE74A6850027FF5D4
:100B10001CAF344A126891037FF53AAF6268002A2D
:100B20007FF436AFDDE72F4A136843F48033136058
:100B3000FFF766FD2B4D064604E0FFF761FD801BC5
:100B4000642813D82B689A03F7D520E72A6842F463
:100B500080722A60FFF754FD07462B68DA053FF5DF
:100B600049AFFFF74DFDC01B0228F6D9032002B0A4
:100B7000BDE8F0811B4920690A6822F0F80242EAC8
:100B8000C0020A6006E70120704700262DE7154ADB
:100B9000136F43F001031367FFF732FD114D8046D9
:100BA00041F2883705E0FFF72BFDA0EB0800B842C3
:100BB000DCD82B6F9B07F6D5002E3FF441AF1BE02E
:100BC0000C4A084D1360FFF71BFD064604E0FFF7D3
:100BD00017FD801B0228C9D82B689907F7D4236812
:100BE000D8E600BF00380240800E47420070004047
:100BF0006000474200004742234A136C23F08053B1
:100C000013641DE7204B1A6842F480221A601A68A8
:100C100042F480321A608BE71B4B1A6F42F00402D9
:100C20001A671A6F42F001021A67B5E7FFF7E8FC8E
:100C3000064604E0FFF7E4FC801B022896D82B68E8
:100C40009901F7D4D4E90736D4E90902E16A0E4CD8
:100C5000334343EA8013520843EA0163013A0B49E4
:100C600043EA024301226B600A60FFF7C9FC0546B4
:100C700005E0FFF7C5FC401B02283FF677AF23686D
:100C80009A01F6D5F8E600BF0038024060004742FE
:100C9000174908B58B6803F00C03042B1BD0082BF5
:100CA00017D14A684B6813F4800302F03F0214D155
:100CB00049681048C1F38811A1FB0001FFF788FAC9
:100CC0000B4B5B68C3F3014301335B00B0FBF3F0F4
:100CD00008BD084808BD084808BD4B680648C3F36E
:100CE0008813A3FB00010023FFF772FAE8E700BFB7
:100CF000003802400024F40000127A0060B1484A33
:100D0000136803F00F038B4208D2CBB21370136841
:100D100003F00F038B4201D00120704703682DE9D7
:100D2000F0419D0714D55C0704D53E4CA26842F4FF
:100D3000E052A2601A0704D53A4CA26842F460421D
:100D4000A260384C8568A26822F0F0022A43A260B3
:100D5000DF0704460D4622D54268012A56D0931E6D
:100D6000012B304B1B6858D9990725D52D4EB368F8
:100D700023F003031343B360FFF742FC41F28837CB
:100D8000804605E0FFF73CFCA0EB0800B84242D8E3
:100D9000B368626803F00C03B3EB820FF2D1204A10
:100DA000136803F00F03AB4209D9EBB21370136859
:100DB00003F00F03AB4202D00120BDE8F0812368AD
:100DC0005A0706D51749E0688A6822F4E0520243C0
:100DD0008A601B0711D4FFF75BFF124B12499B6817
:100DE000124AC3F30313CB5C20FA03F30020136011
:100DF000FFF7BEFB0020BDE8F0810A4A2169936835
:100E000023F4604343EAC1039360E4E7054B1B68A6
:100E10009E03ABD4D0E70320EDE79801A6D4CBE73F
:100E2000003C024000380240982F000808000020D3
:100E3000044B054A9B680549C3F382230868D35CC9
:100E4000D840704700380240A82F00080800002052
:100E5000044B054A9B680549C3F342330868D35CD9
:100E6000D840704700380240A82F00080800002032
:100E7000002800F004812DE9F84390F83930044649
:100E800003F0FF02002B00F0F5802368266924227E
:100E900084F83920D86820F40050D4E90225D860BD
:100EA0001969E06921F4405129431961D9686569DC
:100EB000324321F416412A4321F00C0102430A4334
:100EC000DA605A69A16922F440720A43B0F5004F12
:100ED0005A61AA4A71D0934200F0D38002F5806231
:100EE000934200F0CE80FFF7A3FFA54F636800EBAD
:100EF000800000EB80009B00B0FBF3F3A7FB032313
:100F00005B091D01FFF794FF666800EB800000EBB2
:100F10008000B600B0FBF6F6FFF78AFF636800EBCF
:100F2000800000EB80009B00B0FBF3F3A7FB0323E2
:100F30005B094FF0640909FB13631B013233A7FB04
:100F400003235B0903F0F006FFF772FF626800EB12
:100F5000800000EB80009300B0FBF3F8FFF768FF20
:100F6000D4E9002100EB80008B0000EB8000B0FB97
:100F7000F3F3A7FB03135B0909FB13831B01323354
:100F8000A7FB0313C3F3431333432B449360136949
:100F900023F490431361536923F02A035361D36808
:100FA0000025202143F40053D3602846E56384F8EC
:100FB000391084F83A10BDE8F883934200F09F801E
:100FC00002F58062934200F09A80FFF731FF6C4F88
:100FD000636800EB800000EB80005B00B0FBF3F384
:100FE000A7FB03235B091E01FFF722FF656800EBE7
:100FF000800000EB80006D00B0FBF5F5FFF718FFF7
:10100000636800EB800000EB80005B00B0FBF3F353
:10101000A7FB03235B094FF0640909FB1353DB00B3
:101020003233A7FB03231B0903F4F875FFF700FF16
:10103000626800EB800000EB80005300B0FBF3F827
:10104000FFF7F6FED4E9002100EB80004B0000EB37
:101050008000B0FBF3F3A7FB03135B0909FB1383C9
:10106000DB003233A7FB0313C3F3421333442B4497
:1010700093608CE780F8382000F04CFD05E70120F4
:101080007047FFF7E5FE3E4F636800EB800000EB22
:1010900080009B00B0FBF3F3A7FB03235B091D015A
:1010A000FFF7D6FE666800EB800000EB8000B6001C
:1010B000B0FBF6F6FFF7CCFE636800EB800000EBB8
:1010C00080009B00B0FBF3F3A7FB03234FF0640900
:1010D0005B0909FB13631B013233A7FB03235B0985
:1010E00003F0F006FFF7B4FE626800EB80009300A7
:1010F00000EB8000B0FBF3F8FFF7AAFE30E7FFF744
:10110000A7FE1F4F636800EB800000EB80005B00D0
:10111000B0FBF3F3A7FB03235B091E01FFF798FE67
:10112000656800EB800000EB80006D00B0FBF5F51A
:10113000FFF78EFE636800EB800000EB80005B0031
:10114000B0FBF3F3A7FB03234FF064095B0909FB32
:101150001353DB003233A7FB03231B0903F4F87599
:10116000FFF776FE626800EB8000530000EB800022
:10117000B0FBF3F8FFF76CFE64E700BF001001401E
:101180001F85EB51F0B50E4690F83910202983B039
:101190002DD1002E2ED0019262B31F4690F8383028
:1011A000012B044623D00023C3630121212380F8AF
:1011B000381080F83930FFF723FA019AA284E284CC
:1011C00022680546E38C9BB2002B39D0E08CA168E5
:1011D000013880B2B1F5805FE08419D0781C3BD132
:1011E00010680106FCD5337853600136EAE7022027
:1011F00003B0F0BD012003B0F0BD13681B060CD492
:10120000002F33D0FFF7FCF9401B874222682DD313
:10121000781CF2D110680106FCD533882169C3F32C
:10122000080353600029E0D10236CBE713685B0660
:101230000BD4DFB1FFF7E4F9401B8742226815D3D6
:10124000781CF3D113685906FCD52023002084F8BC
:10125000393084F83800CBE713681B06C3D42FB1AC
:10126000FFF7CEF9401B87422268B7D2D36823F438
:10127000D073D3605369202123F00103002503209C
:10128000536184F8391084F8385084F83A1003B068
:10129000F0BD00BFF0B50E4690F83A10202983B09B
:1012A00032D1002E33D00192002A30D01F4690F860
:1012B0003830012B044627D00023C36301212223A9
:1012C00080F8381080F83A30FFF79AF9019AA28531
:1012D0000546E285E08D80B2002859D0E28DA368F2
:1012E000013A92B2B3F5805FE2851DD0791C206887
:1012F00028D102689206FCD52369721C002B3DD1CF
:10130000436833701646E5E7022003B0F0BD0120C4
:1013100003B0F0BD1A6890060CD4002F3FD0FFF741
:101320006FF9401B874239D3791C2368F2D11A68C0
:101330009206FCD522695B6832BBC3F3080326F82A
:10134000023BC7E703689B06D6D42FB1FFF758F9D5
:10135000401B8742CAD22068C36823F4D073C3609D
:101360004369202223F001030021436184F83920DE
:10137000032084F8381084F83A20C6E7436803F065
:101380007F0333701646A5E7DBB226F8013BA1E7E1
:10139000202384F8380084F83A30B6E72368DA6806
:1013A00022F4D072DA605A69202122F0010200256D
:1013B0005A61032084F8391084F8385084F83A10C0
:1013C000A3E700BF2DE9F04F83B090F800A0009193
:1013D000BAF1000F00F0EF80054615F8013F002B31
:1013E000FBD12D1A447800F101084CB34FF0000CEA
:1013F00000F1FF39AE464F466646E3464146554644
:10140000202C17F8013F25D0202B2FD0884508BF6E
:1014100001260A1A75B30346924613F8012F002AD3
:10142000FBD11B1A5246013B9A420DD02EBB11F83C
:10143000014F002CE4D17546BBF1000F00D045BB35
:10144000002003B0BDE8F08F202CEFD046B94FF05C
:10145000010CECE7884514D0202BDAD0002EF6D012
:101460004FF0000C0BF1010B6646E0E701260A1A6B
:10147000002DD0D14FF0FF33D6E7BCF1000FD6D00E
:10148000EEE7202BC5D04FF0000C0BF1010B6646A8
:10149000CDE706464FEA8B00DDF800A000F0FCFB2C
:1014A000002D0746CAF8000041DDA346CDF80080B4
:1014B000325D202A06EB040310D0002000E04046F5
:1014C00013F8011F202900F10108F8D1023000F0C3
:1014D000E3FB444447F82B000BF1010B0134AC4211
:1014E000E6DB0020DDF800800446771933460CE087
:1014F000DAF8001051F824100A541A78202A00F162
:10150000010005D001339F420ED01A78202AEFD176
:101510009E42F7D013F8012C0133202A18BF013462
:101520009F424FF00000F0D1013D731901930198E3
:1015300000F0BAFB7178002982D0002720293D46AF
:101540003846444619F8013F1CD0202B2AD0A0452C
:1015500008BF01253378A4EB060C4BB3334613F8D0
:10156000012F002AFBD19B1B013B9C4511D005B1EB
:10157000A7B914F8011F00293FF463AF202919F817
:10158000013FE2D1A04507D0202BE3D035B9012798
:10159000EFE72029FAD1EAE7202BDBD00027013042
:1015A0003D46E6E733780125A4EB060C002BD5D1A8
:1015B0004FF0FF33D9E7554614E700BF2DE9F0415E
:1015C0002C489CB000F0B0FC00F030FBC4B20D2CF5
:1015D0004BD00DF10808284F4646002508E006F8D4
:1015E000014B00F023FBC4B20D2C13D0642D11D09D
:1015F000204600F029FC1F2C05F10105EFD82146FB
:10160000384600F009FC06F8014B00F00FFBC4B2AD
:101610000D2CEBD11CAB1D44002401A9404605F85C
:10162000684CFFF7CFFE06460146144800F0F4FB75
:10163000A64216DD124F2546019B01345A59214618
:10164000384600F0E9FBB44205F10405F4D1019BF2
:10165000186800F029FB019800F026FB1CB0BDE8DB
:10166000F081F4D11CB0BDE8F08100250DF108082F
:10167000D0E700BFB02F0008C02F0008CC2F000813
:10168000E02F000808B5044800F04EFC034800F0C5
:101690004BFCFFF793FFFCE7F02F00082830000811
:1016A0002DE9F04F00248FB0CDE90944CDE90B447A
:1016B0007A4A03940D94116BDFF8F0817848DFF8D3
:1016C000F0A1784FDFF8EC9141F010011163116B3C
:1016D00001F01001039103990494116B41F004018E
:1016E0001163116B01F00401049104990594116BCD
:1016F00041F080011163116B01F0800105910599A2
:101700000694116B41F001011163116B01F00101AD
:10171000069106990794116B41F002011163116B58
:1017200001F00201079107990894116B41F008013B
:101730001163126B02F00802089208212246089DEC
:10174000FFF7E8F8012240461146FFF7E3F822468A
:1017500050464FF21001FFF7DDF801264FF0080B5D
:1017600009A94F48CDE909B6CDE90B44FEF7B0FF12
:1017700009A940460225CDE90966CDE90B44FEF7EB
:10178000A7FF052209A940460D920192CDF824B089
:10179000CDE90B440A95FEF79BFF09A93846424B59
:1017A0000A9309960B94FEF793FF09A93846102374
:1017B000062209930D92CDE90A540C94FEF788FF96
:1017C000019A0D92E02309A9384609934FF0040BC2
:1017D000CDE90A540C94FEF77BFF09A94846CDE9F0
:1017E0000A44CDF824B0FEF773FF4FF48063019AEA
:1017F000099309A948460D92CDE90A540C94FEF7C5
:1018000067FF09A950464FF210020992CDE90A6418
:101810000C94FEF75DFF4FF0060C404609A94FF40B
:10182000A452CDF834C00992CDE90A540C94FEF7C5
:101830004FFF09A938464FF400720992CDE90A44D6
:10184000FEF746FF384609A90A224FF4E0570997E8
:101850000D92CDE90A540C94FEF73AFF504609A9BF
:1018600020220992CDE90A444FF41077FEF730FFA9
:101870001222484609A9CDE90972CDE90B64CDF8D9
:1018800034B0FEF725FF084B05480B9409A9CDE9B4
:101890000953FEF71DFF0FB0BDE8F08F003802407E
:1018A0000010024000000240000012100008024038
:1018B000000C02400004024070B5002494B0CDE951
:1018C0000A44CDE90C44CDE90444CDE906441E4A5E
:1018D00001940394116C1D4B41F080511164126C02
:1018E00002F080520192019A02941A6842F48042F6
:1018F0001A601B6803F48043029301214FF4803285
:101900004FF48003022502980891099208214FF4B0
:10191000A8720F9308A807231091119213930E95A4
:1019200012950F26FEF7FAFF4FF4A0524FF48053A2
:1019300003A80521049505940396CDE90623FFF736
:10194000DDF914B070BD00BF0038024000700040E7
:10195000104C08B5FEF72EFEFFF7AEFFFFF7A0FE16
:1019600000F0BCF82268002319465068022200F0FB
:10197000F3FA2268002319469068022200F0ECFA7C
:1019800022680023D0681946022200F0E5FAFFF72A
:1019900079FEFEE70C000020704700BF82B00D4BBF
:1019A000002100915A6C42F480425A645A6C02F44D
:1019B00080420092009A01911A6C42F080521A649F
:1019C0001B6C03F080530193019B072002B0FEF7CC
:1019D0001DBE00BF00380240704700BFFEE700BFD9
:1019E000FEE700BFFEE700BFFEE700BF704700BF95
:1019F000704700BF704700BFFEF7F6BD70B5161EFA
:101A000007DD0C468D1900F0CFF804F8010BA54254
:101A1000F9D1304670BD00BF70B5161E07DD0C460B
:101A20008D1914F8010B00F0ADF8AC42F9D1304635
:101A300070BD00BF0C4A08B5136833B1184469463D
:101A4000884208D81060184608BD084B1360184437
:101A500069468842F6D900F0E3F80C2303604FF0A2
:101A6000FF33184608BD00BF8C000020E8000020AE
:101A70004FF0FF30704700BF4FF400534B60002021
:101A8000704700BF01207047002070471049114B7C
:101A9000D1F8882042F4700210B4C1F888201A6886
:101AA0000D4C002042F001021A6098601A6822F082
:101AB000847222F480321A605C601A684FF000640D
:101AC00022F480221A60D8608C605DF8044B704765
:101AD00000ED00E000380240103000240B4B0C4AAF
:101AE00010B50C211A604FF4E134002218465C60F6
:101AF0005961C3E902221A61C3E90622FFF7B8F966
:101B000000B910BDBDE81040FFF746BFA00000209F
:101B10000044004070B50168184A88B00023914223
:101B2000CDE90333CDE90533079301D008B070BD8B
:101B300002F5FA320193116C114841F4003111643D
:101B4000116C01F40031019101990293136B43F080
:101B500001031363136B03F0010302930C230322AD
:101B6000039303A9072302250124029ECDE904540F
:101B7000CDE90623FEF7ACFD08B070BD004400407F
:101B80000000024000B583B002A94FF6FF7341F890
:101B9000040D01220348FFF7F5FA012003B05DF8B8
:101BA00004FB00BFA000002000B583B04FF6FF7318
:101BB00001220DF107010448FFF76CFB9DF80700B7
:101BC00003B05DF804FB00BFA0000020DFF834D0B4
:101BD000002103E00C4B5B58435004310B480C4B85
:101BE00042189A42F6D30B4A02E0002342F8043B23
:101BF000094B9A42F9D3FFF749FF00F029F8FFF7A4
:101C0000A7FE704700000220E4300008000000201A
:101C10007000002070000020E4000020FEE70000BB
:101C2000014B1868704700BF0C000020074B10B52F
:101C30001C6824B1A36913B9204600F0FDFB61685C
:101C40002046BDE8104000F09DBC00BF0C00002005
:101C500070B50D4E0D4CA41BA4100025A54209D152
:101C60000B4E0C4C01F08CF9A41BA4100025A542CE
:101C700005D170BD56F8253098470135EEE756F886
:101C8000253098470135F2E7DC300008DC300008E9
:101C9000DC300008E0300008024B0146186800F014
:101CA00061B800BF0C000020024B0146186800F02C
:101CB0000BB800BF0C00002002440346934200D141
:101CC000704703F8011BF9E738B50546002945D0F0
:101CD00051F8043C0C1F002BB8BFE41800F0E2FCE4
:101CE0001F4A1368104633B9636014602846BDE884
:101CF000384000F0D8BCA3420CD921686218934246
:101D000004BF1A685B68636004BF521822600460F5
:101D1000ECE713465A680AB1A242FAD91968581872
:101D2000A0420BD120680144581882421960DDD1CD
:101D3000106852685A6001441960D7E702D90C2331
:101D40002B60D3E7206821188A4204BF11685268CB
:101D5000626004BF091821605C60C7E738BD00BF3E
:101D60009400002070B5CD1C25F0030508350C2D1E
:101D700038BF0C25002D064601DBA94203D90C23F0
:101D80003360002070BD00F08DFC214A14682146AC
:101D900091B9204C23681BB9304600F0CDF8206083
:101DA0002946304600F0C8F8431C24D10C23336088
:101DB000304600F078FCE4E70B685B1B18D40B2B73
:101DC0000FD90B60CD50CC18304600F06CFC04F1FC
:101DD0000B00231D20F00700C31AD3D05A42E25053
:101DE000D0E78C424B6816BF636013600C46EBE78C
:101DF0000C464968CCE7C41C24F00304A04205D07B
:101E0000211A304600F098F80130CFD02560DBE78A
:101E100094000020980000200FB40A4B13B51C68F2
:101E200024B1A36913B9204600F006FB05AB049A60
:101E3000A1680193204600F061FC02B0BDE81040AB
:101E400004B070470C00002038B5084B1C680546EC
:101E500024B1A36913B9204600F0EEFAA26829461E
:101E60002046BDE8384000F0E7BE00BF0C0000206F
:101E700070B50E46054618B183690BB900F0DCFA5F
:101E8000AB69AC6813B9284600F0D6FA234B9C42E4
:101E900017D16C68A3891B071DD52369DBB1013EEF
:101EA000A36816F8011F013BA360E9B9002B2EDAE5
:101EB00022460A21284600F0FDF8013011D00A2000
:101EC00011E0174B9C4201D1AC68E3E7154B9C42F3
:101ED00008BFEC68DEE72146284600F03DF90028FF
:101EE000DDD04FF0FF3070BD002B04DAA2699A42BA
:101EF00006DC0A2904D023685A1C22601970CFE737
:101F00002246284600F0D6F80130C9D1E9E7236817
:101F10000A205A1C22601870E5E700BF60300008F4
:101F20008030000840300008024B01461868FFF777
:101F30009FBF00BF0C00002038B5064C00230546AB
:101F400008462360FFF776FD431C02D1236803B1E6
:101F50002B6038BDE00000202DE9F7431D46514BB2
:101F60001E6804460F46904626B1B36913B9304641
:101F700000F062FA4C4B9C4252D17468B8F1020FE7
:101F800006D0B8F1010F00F28980002DC0F28680E2
:101F90002146304600F0D4F9616B41B104F14403AD
:101FA000994202D03046FFF78FFE0023636300237F
:101FB000A3616360A3891B0603D521693046FFF73F
:101FC00083FEA38923F44A6323F00303B8F1020FCD
:101FD000A3815DD001AB6A462146304600F0FEFA8F
:101FE000A3891843A0812DBB009D2846FFF754FE0E
:101FF000074600284ED1DDF80090A9453CD14FF0AE
:10200000FF30A38943F00203A3810023A36004F1FE
:102010004703236023610123636103B0BDE8F083BC
:10202000224B9C4201D1B468A8E7214B9C4208BFD7
:10203000F468A3E7002FD8D0B36913B9304600F095
:10204000FBF9B8F1010F08BFA389276004BF43F073
:102050000103A381A38913F00800C4E904751BD010
:1020600013F0010018BF6D424FF000031DBFA360C5
:10207000A5611846A560D0E74846FFF70DFE074664
:102080000028BCD0A38943F08003A3814D46D3E749
:102090000020B6E7A946F5E7A060BEE74FF0FF30A5
:1020A000BBE700BF0C000020603000088030000853
:1020B00040300008F8B50E461446054618B183694D
:1020C0000BB900F0B9F9214B9C422AD16C68A36985
:1020D000A360A3891A072ED5236963B323692068F7
:1020E000C01A6369F6B28342374604DC21462846AB
:1020F00000F026F928BBA368013BA36023685A1CA3
:1021000022601E7063690130834204D0A389DB071B
:1021100019D50A2E17D12146284600F011F990B1A1
:102120000FE00B4B9C4201D1AC68D0E7094B9C42BD
:1021300008BFEC68CBE72146284600F00DF80028E0
:10214000CCD04FF0FF373846F8BD00BF60300008F4
:102150008030000840300008324B70B51D680646DC
:102160000C4625B1AB6913B9284600F065F92E4B32
:102170009C420FD16C68B4F90C309AB215072CD47C
:10218000D00611D40922326043F04003A3814FF0FE
:10219000FF303EE0254B9C4201D1AC68EBE7244B7D
:1021A0009C4208BFEC68E6E7510712D5616B41B16C
:1021B00004F14403994202D03046FFF785FD002325
:1021C0006363A38923F02403A3810023636023694D
:1021D0002360A38943F00803A38123694BB9A38932
:1021E00003F42073B3F5007F03D02146304600F09E
:1021F00019FAA28912F001030CD00023A3606369CD
:102200005B42A361236953B9B4F90C3013F0800029
:10221000BAD170BD920758BF6369A360F2E700208E
:10222000F7E700BF0C000020603000088030000895
:10223000403000088A892DE9F041054610070C4618
:1022400058D44B68002B05DC0B6C002B02DC002003
:10225000BDE8F081E66A002EF9D0002312F4805226
:102260002F68216A2B6032D0606DA3895A0705D58B
:102270006368C01A636B0BB1236CC01A002302465B
:10228000E66A216A2846B047431CA38906D129681B
:102290001D2948D8294ACA40D60744D50022626081
:1022A000D9042269226004D5421C01D12B6803B9EC
:1022B0006065616B2F600029C9D004F14403994225
:1022C00002D02846FFF700FD00206063C0E701232D
:1022D0002846B047411CC8D12B68002BC5D01D2B08
:1022E00001D0162B01D12F60B1E7A38943F0400341
:1022F000A381ADE70F69002FA9D093070E6808BF2F
:102300004B690F6018BF0023A6EB07088B60B8F17C
:10231000000F9CDD43463A46216AA66A2846B0472C
:10232000002806DCA38943F04003A3814FF0FF306F
:102330008EE70744A8EB0008E9E700BF0100402052
:1023400038B50B6905460C46DBB118B183690BB98A
:1023500000F072F80C4B9C4209D16C68B4F90C3057
:102360007BB121462846BDE83840FFF763BF074BE5
:102370009C4201D1AC68F1E7054B9C4208BFEC6878
:10238000ECE7002038BD00BF603000088030000856
:1023900040300008014620B9044B0549186800F098
:1023A000D3B8044B1868FFF7CBBF00BF3C30000820
:1023B000412300080C000020002310B50446C0E9AA
:1023C0000033836081814366C281C0E90433836145
:1023D000194608225C30FFF76FFC054B6362054B22
:1023E000A362054BE362054B2462236310BD00BF6B
:1023F000FD2C00081F2D0008572D00087B2D00081C
:10240000014900F0A1B800BF4123000870B54A1E81
:10241000682555430E4605F17401FFF7A3FC0446F9
:1024200040B10021C0E900160C30A06005F168023F
:10243000FFF742FC204670BD836910B5044633BBEC
:10244000C0E912330365124B124A1B68826298423C
:1024500004BF0123836100F01FF86060204600F094
:102460001BF8A060204600F017F80022E06004216D
:102470006068FFF7A1FF01220921A068FFF79CFF18
:1024800002221221E068FFF797FF0123A36110BD2C
:102490003C30000801240008F8B51B4B1E68B369E6
:1024A000074613B93046FFF7C7FF4836D6E901346F
:1024B000013B03D5336833B13668F7E7B4F90C5004
:1024C0006DB16834F4E704213846FFF79FFF3060B0
:1024D0000028F1D10C233B6004462046F8BD0B4B8D
:1024E0006566C4E90055A560C4E90335C4E905552E
:1024F0000822294604F15C00FFF7DEFBC4E90D5514
:10250000C4E91255E9E700BF3C3000080100FFFFB5
:102510002DE9F041884600F14804002614B9304600
:10252000BDE8F081D4E90175013F01D52468F5E7E4
:10253000AB89012B06D9B5F90E30013302D02846FC
:10254000C04706436835EFE72DE9F84380468946E2
:1025500000F14804002614B93046BDE8F883D4E9F8
:102560000175013F01D52468F5E7AB89012B07D937
:10257000B5F90E30013303D029464046C84706431B
:102580006835EEE738B50C46054618B183690BB9D6
:10259000FFF752FF0E4B9C420BD16C686368013B06
:1025A000002B63600FDA21462846BDE8384000F072
:1025B00079BB084B9C4201D1AC68EFE7064B9C42CB
:1025C00008BFEC68EAE723685A1C2260187838BD17
:1025D00060300008803000084030000870B50E46BA
:1025E000B1F90E10002996B014461D4607DA0023F3
:1025F0002B60B3891A0610D44FF480630EE06A464C
:1026000000F0E2FB0028F2DB019A02F47042A2F52E
:1026100000535A425A412A60EEE7402300202360CB
:1026200016B070BD8B8973B59D0706460C4607D55D
:1026300004F14703236023610123636102B070BD8D
:1026400001AB6A46FFF7CAFF009905463046FFF71F
:1026500089FB48B9B4F90C309A05EFD423F0030391
:1026600043F00203A381E3E70D4BB362A38920602B
:1026700043F08003A381009B6361019B20615BB1F8
:10268000B4F90E10304600F0B1FB28B1A38923F055
:10269000030343F00103A381A3891D43A581CDE773
:1026A00001240008704770479368013B002B10B469
:1026B000936008DA9469A34201DB0A2903D15DF82B
:1026C000044BFFF7F7BC1368581C106019700846DC
:1026D0005DF8044B7047F8B506460F461446D5180A
:1026E000AC4201D1002007E03A4614F8011B304605
:1026F000FFF7DAFF431CF3D1F8BD00002DE9F04FDE
:102700000C469DB017461D46064618B183690BB9A5
:10271000FFF792FE7C4B9C4258D17468A38918073E
:102720005ED52369002B5BD00023099320238DF80D
:10273000293030238DF82A3003954FF0010BB8462D
:10274000454615F8013B0BB1252B54D1B8EB070AD0
:102750000BD053463A4621463046FFF7BCFF0130C6
:1027600000F0C280099B5344099398F80030002B75
:1027700000F0BA8000234FF0FF32CDE90523049327
:1027800007938DF853301A93A846052218F8011BB9
:102790005E48FDF79DFE049B78BBD90644BF20220E
:1027A0008DF853201A0744BF2B228DF853202A7826
:1027B0002A2A2AD0079AA84600200A25414611F85D
:1027C000013B303B092B69D960B324E0504B9C425C
:1027D00001D1B468A2E74F4B9C4208BFF4689DE763
:1027E00021463046FFF7B8FC00289DD04FF0FF305F
:1027F0001DB0BDE8F08FA846A2E7444A801A0BFA44
:1028000000F0184304904546BEE7039A111D126874
:102810000391002A01DB079204E0524243F00203D5
:102820000792049398F800302E2B0ED198F80130BF
:102830002A2B38D1039B1A1D1B680392002BB8BFAB
:102840004FF0FF3308F102080593334D98F800105C
:1028500003222846FDF73CFE40B14023401B03FA0B
:1028600000F0049B034308F10108049398F800105A
:102870002A488DF82810062208F10107FDF728FEE6
:10288000002837D0264B1BBB039B073323F00703DD
:1028900008330393099B4B44099350E705FB02322D
:1028A000012088468AE7002308F1010805931946AC
:1028B0000A25404610F8012B303A092A03D9002B8B
:1028C000C3D00591C1E705FB012101238046F0E754
:1028D00003AB00932246134B04A93046AFF30080AC
:1028E000B0F1FF3F8146D5D1A3895B063FF57EAFAE
:1028F00009987DE703AB009322460A4B04A93046B2
:1029000000F088F8ECE700BF60300008A030000855
:102910008030000840300008A6300008AA300008C7
:1029200000000000D72600082DE9F04791461F4619
:102930008A680B69DDF820809342B8BF1346C9F856
:10294000003091F8432006460C4612B10133C9F815
:1029500000302368990642BFD9F800300233C9F825
:102960000030256815F0060507D104F1190AE3685F
:10297000D9F800209B1AAB4228DC94F84330226837
:10298000003318BF012392062DD404F143023946C7
:102990003046C047013020D02368E568D9F80020D0
:1029A00003F00603042B08BFAD1AA36822690CBF0D
:1029B00025EAE57500259342C4BF9B1AED184FF038
:1029C00000091A344D451AD1002008E0012352466F
:1029D00039463046C047013003D14FF0FF30BDE8E3
:1029E000F0870135C3E7E1185A1C302081F8430015
:1029F000224494F8451082F843100233C5E70123BE
:102A0000224639463046C0470130E6D009F1010977
:102A1000D8E700002DE9F04301F1430C0C46097E94
:102A200085B06E291746064698460C9A00F0B3808A
:102A300022D8632936D00AD8002900F0B980582955
:102A400000F0838004F1420584F8421032E06429EA
:102A500001D06929F6D120681368050603F1040145
:102A60002AD51B681160002B03DA2D225B4284F803
:102A700043206F480A2239E0732900F09D8008D86E
:102A80006F2920D07029DDD1236843F02003236013
:102A900003E0752917D07829D4D1782384F84530FC
:102AA000644855E01368191D1B68116004F1420564
:102AB00084F8423001238CE01B68116010F0400F55
:102AC00018BF1BB2CFE713682568181D10602806D1
:102AD00001D51B6802E06806FBD51B8854486F29A6
:102AE00014BF0A220822002184F843106568A560FB
:102AF000002DC0F29580216821F004012160002B97
:102B00003DD1002D40F08E806546082A0BD1236808
:102B1000DB0708D5236962689A42DEBF302305F8D7
:102B2000013C05F1FF35ACEB05032361CDF80080D6
:102B30003B4603AA21463046FFF7F6FE01304DD151
:102B40004FF0FF3005B0BDE8F083394884F84510F8
:102B5000136821681D1D1B6815600A060BD5CA077E
:102B600044BF41F0200121601BB9226822F02002FD
:102B700022601022B7E74D0648BF9BB2EFE76546DB
:102B8000B3FBF2F102FB1133C35C05F8013D0B46C8
:102B90000029F5D1B9E7136825686169181D10602F
:102BA00028061B6801D5196002E06A06FBD519806A
:102BB000002323616546B9E71368191D11601D687C
:102BC000626800212846FDF783FC08B1401B606065
:102BD00063682361002384F84330A7E723692A460A
:102BE00039463046C0470130AAD023689B0713D42A
:102BF000E068039B9842B8BF1846A3E701234A4602
:102C000039463046C04701309AD00135E368039A0F
:102C10009B1AAB42F2DCEBE7002504F11909F5E75A
:102C2000002BACD1037884F8423004F142056CE704
:102C3000B1300008C230000870B50D461446064693
:102C400018B183690BB9FFF7F7FB134B9C4212D104
:102C50007468A368013B002BA36016DAA269934253
:102C600002DBEBB20A2B10D1224629463046BDE8E2
:102C70007040FFF71FBA094B9C4201D1B468E8E7E6
:102C8000074B9C4208BFF468E3E723685A1C2260A4
:102C90001D70E8B270BD00BF6030000880300008D1
:102CA0004030000838B50C46054618B183690BB9A9
:102CB000FFF7C2FB0E4B9C420DD16C6821462846A3
:102CC00000F0D2F888B96368013B636023685A1C3E
:102CD0002260187838BD074B9C4201D1AC68EDE703
:102CE000054B9C4208BFEC68E8E74FF0FF30F1E786
:102CF00060300008803000084030000810B50C46F5
:102D0000B1F90E1000F094F80028ABBF636DA389F1
:102D10001B1823F48053ACBF6365A38110BD2DE95C
:102D2000F0411F468B89DB0505460C46164605D546
:102D300002230022B1F90E1000F068F8A389B4F95B
:102D40000E1023F48053A38132463B462846BDE84B
:102D5000F04100F017B810B50C46B1F90E1000F0B4
:102D600055F8431CA38915BF606523F4805343F4D1
:102D70008053A38118BFA38110BDB1F90E1000F0DC
:102D800013B8000038B5074C054608461146002226
:102D900022601A46FEF740FE431C02D1236803B1AD
:102DA0002B6038BDE000002038B5064C00230546F6
:102DB00008462360FEF75CFE431C02D1236803B182
:102DC0002B6038BDE000002038B5074C00230546D5
:102DD000084611462360FEF74FFE431C02D12368CC
:102DE00003B12B6038BD00BFE000002038B5064CB1
:102DF0000023054608462360FEF744FE431C02D12B
:102E0000236803B12B6038BDE000002038B5074CC3
:102E1000054608461146002222601A46FEF734FE97
:102E2000431C02D1236803B12B6038BDE0000020B1
:102E300038B5074C054608461146002222601A465E
:102E4000FEF7DCFD431C02D1236803B12B6038BDC3
:102E5000E0000020838903F00903092B01D1FFF76B
:102E600099BA002070470000F8B50C46054618B125
:102E700083690BB9FFF7E0FA3C4B9C420AD16C68BE
:102E8000B4F90C200023636093B29E060CD54FF07A
:102E9000FF3067E0364B9C4201D1AC68F0E7354B20
:102EA0009C4208BFEC68EBE7580749D4D90605D423
:102EB000092342F040022B60A281E8E71A070BD5F4
:102EC00021462846FFF73CFA0028E0D1A389A060FC
:102ED00023F00803A381A061A38943F00403A38125
:102EE00023691BB921462846FFF79CFBB4F90C70F7
:102EF000BEB2B3070FD00123A3811F4B1F4918682F
:102F000006F00906FFF704FB092EA78103D121462D
:102F10002846FFF78FF922692260666A6369216A91
:102F20002846B047002860601DDCB4F90C3017BF9C
:102F3000002243F0200343F040036260A381A6E730
:102F4000616B0029CCD004F14403994202D0284699
:102F5000FEF7BAFE236C636000206063002BBFD0D5
:102F6000E36B2360F8BD0020FCE700BF6030000881
:102F700080300008403000083C300008552E000822
:102F8000F8B500BFF8BC08BC9E467047F8B500BF56
:082F9000F8BC08BC9E46704726
:102F98000000000000000000010203040607080901
:102FA80000000000010203042D2D3E20456E7465CB
:102FB8007220746578743A005B3078253032785D19
:102FC800000000000A2D2D3E20636F756E74203DB1
:102FD8002025640A000000002D2D2D3E2025326496
:102FE8003A20272573270A000A454C4543333733CF
:102FF800302D3230313974312041737369676E6D09
:10300800656E74203120285665723A2030312024AC
:103018005265763A203135323620242900000000E6
:103028000A2D3E205175657374696F6E20352E2EFA
:103038002E0000001000002000000000000000002A
:103048000000000000000000000000000000000078
:103058000000000000000000000000000000000068
:103068000000000000000000000000000000000058
:103078000000000000000000000000000000000048
:103088000000000000000000000000000000000038
:103098000000000000000000232D302B2000686C89
:1030A8004C00656667454647003031323334353663
:1030B800373839414243444546003031323334359C
:0C30C800363738396162636465660000C9
:0830D4002CD1FF7F0100000078
:0430DC00B501000832
:0430E0009101000852
:1030E40001000000100000000024F4001000002083
:1030F4000000000060300008803000084030000804
:1031040000000000000000000000000000000000BB
:1031140000000000000000000000000000000000AB
:10312400000000000000000000000000000000009B
:10313400000000000000000000000000000000008B
:10314400000000000000000000000000000000007B
:0400000508001BCD07
:00000001FF
